:2000000009C018951895D1C01895189518951895189518958FE98DBFC4E8ECE74E2EDD275B
:200020005D2EEEE3F0E0A0E6B0E084B7082E877F84BF8FE181BD80E081BD88278D933197E1
:20004000E9F76624B898B99ABA9ABB98BC987894C09AC19AC29AC39AC49ABDD0A1E62C93ED
:20006000A0E61C93A0E68C918F778C93C19AC29A00916000013081E009F080E08F930027A7
:20008000A6E38C9183FB0EF401E040E0041781E009F080E09F9189238F930027A6E38C9199
:2000A00084FB0EF401E040E0041781E009F080E09F918923882309F402C0C198C29800915F
:2000C0006000023081E009F080E08F930027A6E38C9183FB0EF401E040E0041781E009F0EF
:2000E00080E09F9189238F930027A6E38C9184FB0EF401E041E0041781E009F080E09F914D
:200100008923882309F402C0C198C29800916000033081E009F080E08F930027A6E38C9149
:2001200083FB0EF401E041E0041781E009F080E09F9189238F930027A6E38C9184FB0EF41C
:2001400001E040E0041781E009F080E09F918923882309F402C0C198C298009160000430AB
:2001600081E009F080E08F930027A6E38C9183FB0EF401E041E0041781E009F080E09F914F
:2001800089238F930027A6E38C9184FB0EF401E041E0041781E009F080E09F9189238823E5
:2001A00009F402C0C198C29858CF8F939F938FB73395539509F4439595EB92BF9F918FBF38
:2001C0008F9118953197F1F70895689462F80895E89462F808950F933F934F935F932F9296
:2001E0003F928F939F938FB78F9383B78F93826083BF89B78F93826089BF85EB82BF552739
:2002000044273327483008F047C0373324F4B09BF8CFF8CF41C04830ECF7B099FCCF33277D
:200220003232D4F5B09BFCCF932F332711272227913110F0969511E0292E2694322C290E5A
:20024000990F390E113021F0321534F5B099FCCF33270CE03215F0F3B09909C08894111F0B
:20026000221F3315CCF4B09BFCCF332708C00894111F221F331584F4B099FCCF33270A9523
:2002800049F7912F991F221F991F221F25FB17F926FB16F92F7102C01FEF2FEF8F9189BF16
:1A02A0008F9183BF8F918FBF9F918F913F902F905F914F913F910F910895B9
:00000001FF
